S02700004F6E5F64656D616E645F547261666669635F6C696768745F636F6E74726F6C2E7372656383
S11300000C942A000C9456030C9483030C94B003B0
S11300100C9447000C9447000C9447000C94470040
S11300200C9447000C9447000C9432040C9405047F
S11300300C9447000C9447000C9447000C94470020
S11300400C9447000C9447000C9447000C94470010
S11300500C94470011241FBECFE5D8E0DEBFCDBF0E
S113006010E0A0E6B0E0E2ECF8E002C005900D92EA
S1130070A436B107D9F720E0A4E6B0E001C01D9290
S1130080AC37B207E1F70E9495010C945F040C941D
S1130090000080916600909167000197909367003B
S11300A080936600892B69F587EF82BF8091610098
S11300B0815080936100811117C085E080936100B5
S11300C080916500823030F48093640082E08093F4
S11300D065000AC080916400813019F410926500B3
S11300E003C081E080936500809162008160809309
S11300F062008EE390E0909367008093660087EF40
S113010082BF089586E00E942603109260008091C9
S113011065009FEF980F9230A0F491E090936400F3
S1130120813059F485E0809361008EE390E09093F0
S113013067008093660087EF82BF82E0809365004A
S1130140089585E0809361008EE390E090936700CA
S11301508093660087EF82BF089540E062E08EE0FE
S11301600E949A0141E062E08EE00E942A0241E08E
S113017060E08BE00E949A0141E061E08BE00E9424
S11301809A0141E062E08BE00E949A0140E060E065
S11301908BE00E942A0240E061E08BE00E942A0288
S11301A040E062E08BE00E942A0241E060E08CE0E3
S11301B00E949A0141E061E08CE00E949A0141E0D2
S11301C062E08CE00E949A0140E060E08CE00E94D2
S11301D02A0240E061E08CE00E942A0240E062E0F2
S11301E08CE00E942A0281E0809365008EE390E017
S11301F090936700809366000E94DD030E94F802DA
S113020046E060E070E082E890E00E943B0341E059
S113021060E070E089E490E00E94E70387EF82BF2A
S11302207894089580916500813019F541E060E08B
S11302308BE00E942A0240E062E08BE00E942A02E6
S113024040E061E08BE00E942A0240E060E08CE044
S11302500E942A0240E061E08CE00E942A0241E010
S113026062E08CE00E942A02809165008130E1F313
S11302700895823041F540E060E08BE00E942A025C
S113028040E062E08BE00E942A0240E060E08CE003
S11302900E942A0240E062E08CE00E942A020EC022
S11302A080916200882351F01092620061E08CE03A
S11302B00E94BA0261E08BE00E94BA02809165005C
S11302C0823071F3089540E060E08BE00E942A02DE
S11302D041E062E08BE00E942A0240E061E08BE0B2
S11302E00E942A0241E060E08CE00E942A0240E081
S11302F061E08CE00E942A0240E062E08CE00E940F
S11303002A020EC080916100833050F48091600015
S1130310811106C086E00E94120381E08093600090
S113032080916500882371F308950E94AD000E94B6
S11303301201FDCF95EF980F943008F081C068301A
S113034008F080C04130D9F58C30A9F018F48B3016
S113035031F07AC08D30D9F08E3029F175C02AB3CE
S113036081E090E002C0880F991F6A95E2F7822B22
S11303708ABB80E0089527B381E090E002C0880F33
S1130380991F6A95E2F7822B87BB80E0089524B316
S113039081E090E002C0880F991F6A95E2F7822BF2
S11303A084BB80E0089521B381E090E002C0880F0F
S11303B0991F6A95E2F7822B81BB80E00895411171
S11303C045C08C30B1F018F48B3031F041C08D3021
S11303D0E9F08E3041F13CC02AB381E090E002C0E4
S11303E0880F991F6A95E2F7809582238ABB80E083
S11303F0089527B381E090E002C0880F991F6A95A1
S1130400E2F78095822387BB80E0089524B381E0DE
S113041090E002C0880F991F6A95E2F780958223C5
S113042084BB80E0089521B381E090E002C0880F8E
S1130430991F6A95E2F78095822381BB80E0089535
S113044081E0089581E0089580E0089581E00895B1
S113045080E0089595EF980F943008F081C06830DB
S113046008F080C04130D9F58C30A9F018F48B30F5
S113047031F07AC08D30D9F08E3029F175C02BB3AC
S113048081E090E002C0880F991F6A95E2F7822B01
S11304908BBB80E0089528B381E090E002C0880F10
S11304A0991F6A95E2F7822B88BB80E0089525B3F3
S11304B081E090E002C0880F991F6A95E2F7822BD1
S11304C085BB80E0089522B381E090E002C0880FEC
S11304D0991F6A95E2F7822B82BB80E0089541114F
S11304E045C08C30B1F018F48B3031F041C08D3000
S11304F0E9F08E3041F13CC02BB381E090E002C0C2
S1130500880F991F6A95E2F7809582238BBB80E060
S1130510089528B381E090E002C0880F991F6A957E
S1130520E2F78095822388BB80E0089525B381E0BB
S113053090E002C0880F991F6A95E2F780958223A4
S113054085BB80E0089522B381E090E002C0880F6B
S1130550991F6A95E2F78095822382BB80E0089513
S113056081E0089581E0089580E0089581E0089590
S113057080E0089595EF980F9430C0F56830B0F599
S11305808C30A1F018F48B3031F030C08D30C9F0CC
S11305908E3011F12BC02BB381E090E002C0880FA4
S11305A0991F6A95E2F782278BBB20C028B381E0AC
S11305B090E002C0880F991F6A95E2F7822788BBF2
S11305C015C025B381E090E002C0880F991F6A9599
S11305D0E2F7822785BB0AC022B381E090E002C023
S11305E0880F991F6A95E2F7822782BB81E00895FC
S11305F08BB780648BBF8BB78F778BBF8BB78F7DA7
S11306008BBF85B78C7F85BF85B7836085BF85B772
S1130610837F85BF85B7846085BF84B7806484BFCA
S113062080E008959BEF980F933070F44BB721E06E
S113063030E0B90102C0660F771F8A95E2F7CB015B
S1130640842B8BBF80E0089581E008959BEF980F81
S1130650933078F44BB721E030E0B90102C0660F63
S1130660771F8A95E2F7CB01809584238BBF80E0C6
S1130670089581E008950097A9F02BEF240F23300B
S113068098F450E045505109440F551FFA01E259BE
S1130690FF4F91838083FA01E859FF4F7183608390
S11306A080E0089581E0089581E008951F920F92FB
S11306B00FB60F9211242F933F934F935F936F9331
S11306C07F938F939F93AF93BF93EF93FF93E091A7
S11306D07000F0917100309729F080916A00909138
S11306E06B000995FF91EF91BF91AF919F918F910D
S11306F07F916F915F914F913F912F910F900FBE1A
S11307000F901F9018951F920F920FB60F921124FD
S11307102F933F934F935F936F937F938F939F9305
S1130720AF93BF93EF93FF93E0917200F091730046
S1130730309729F080916C0090916D000995FF919C
S1130740EF91BF91AF919F918F917F916F915F9145
S11307504F913F912F910F900FBE0F901F901895BE
S11307601F920F920FB60F9211242F933F934F9322
S11307705F936F937F938F939F93AF93BF93EF9305
S1130780FF93E0916E00F0916F00309729F0809113
S11307906800909169000995FF91EF91BF91AF9125
S11307A09F918F917F916F915F914F913F912F9185
S11307B00F900FBE0F901F90189585E083BF89B7E7
S11307C08C7F89BF89B7816089BF80E008950097D5
S11307D0C1F0413051F49093790080937800709384
S11307E075006093740080E00895423061F4909342
S11307F07B0080937A00709377006093760080E0AA
S1130800089583E0089581E008951F920F920FB632
S11308100F9211242F933F934F935F936F937F9382
S11308208F939F93AF93BF93EF93FF93E0917800DF
S1130830F0917900309729F08091740090917500BF
S11308400995FF91EF91BF91AF919F918F917F9106
S11308506F915F914F913F912F910F900FBE0F9029
S11308601F9018951F920F920FB60F9211242F9379
S11308703F934F935F936F937F938F939F93AF9324
S1130880BF93EF93FF93E0917A00F0917B00309750
S113089029F080917600909177000995FF91EF916E
S11308A0BF91AF919F918F917F916F915F914F9184
S11308B03F912F910F900FBE0F901F901895F894B1
S10508C0FFCF64
S10708C20105010027
S9030000FC
